:03000000020100FA
:0300030002015F98
:030013000201687F
:1001000075A885D288D28A90016F780079002090F6
:10011000010820910118E833500478008008E8C3F2
:10012000940A40027809E893F580B9000531480245
:10013000010E1EBE00097EF018E83350027800B8A8
:100140000002D287314880DE7F05C2A9758901751A
:100150008C3C758AB0C28DD28C308DFDDFEC227460
:100160000167F97EF0C2873279007800C287324099
:0901700079243019120278001004
:00000001FF
