:03000000020100FA
:0300030002015F98
:0300130002016681
:1001000075A885D288D28A90016D780079002090F8
:10011000010820910118E833500478008008E8C3F2
:10012000940A40027809E893F580B9000531460247
:10013000010E18E8335004D2877800313F80E7750C
:1001400089107E7080077589107E0A8000758DD8B1
:10015000758BF0D28E308FFDC28EC28FDEEF22748F
:100160000167F9C2873279007800C287324079246A
:0701700030191202780010A3
:00000001FF
